{
  "contractName": "Exchange",
  "abi": [
    {
      "inputs": [
        {
          "internalType": "address",
          "name": "_feeAccount",
          "type": "address"
        },
        {
          "internalType": "uint256",
          "name": "_feePercent",
          "type": "uint256"
        }
      ],
      "stateMutability": "nonpayable",
      "type": "constructor"
    },
    {
      "anonymous": false,
      "inputs": [
        {
          "indexed": false,
          "internalType": "address",
          "name": "token",
          "type": "address"
        },
        {
          "indexed": false,
          "internalType": "address",
          "name": "user",
          "type": "address"
        },
        {
          "indexed": false,
          "internalType": "uint256",
          "name": "amount",
          "type": "uint256"
        },
        {
          "indexed": false,
          "internalType": "uint256",
          "name": "balance",
          "type": "uint256"
        }
      ],
      "name": "Deposit",
      "type": "event"
    },
    {
      "anonymous": false,
      "inputs": [
        {
          "indexed": false,
          "internalType": "address",
          "name": "token",
          "type": "address"
        },
        {
          "indexed": false,
          "internalType": "address",
          "name": "user",
          "type": "address"
        },
        {
          "indexed": false,
          "internalType": "uint256",
          "name": "amount",
          "type": "uint256"
        },
        {
          "indexed": false,
          "internalType": "uint256",
          "name": "balance",
          "type": "uint256"
        }
      ],
      "name": "Withdraw",
      "type": "event"
    },
    {
      "inputs": [],
      "name": "ETHER",
      "outputs": [
        {
          "internalType": "address",
          "name": "",
          "type": "address"
        }
      ],
      "stateMutability": "view",
      "type": "function",
      "constant": true
    },
    {
      "inputs": [],
      "name": "feeAccount",
      "outputs": [
        {
          "internalType": "address",
          "name": "",
          "type": "address"
        }
      ],
      "stateMutability": "view",
      "type": "function",
      "constant": true
    },
    {
      "inputs": [],
      "name": "feePercent",
      "outputs": [
        {
          "internalType": "uint256",
          "name": "",
          "type": "uint256"
        }
      ],
      "stateMutability": "view",
      "type": "function",
      "constant": true
    },
    {
      "inputs": [
        {
          "internalType": "address",
          "name": "",
          "type": "address"
        },
        {
          "internalType": "address",
          "name": "",
          "type": "address"
        }
      ],
      "name": "tokens",
      "outputs": [
        {
          "internalType": "uint256",
          "name": "",
          "type": "uint256"
        }
      ],
      "stateMutability": "view",
      "type": "function",
      "constant": true
    },
    {
      "inputs": [],
      "name": "depositEther",
      "outputs": [],
      "stateMutability": "payable",
      "type": "function",
      "payable": true
    },
    {
      "inputs": [
        {
          "internalType": "uint256",
          "name": "_amount",
          "type": "uint256"
        }
      ],
      "name": "withdrawEther",
      "outputs": [],
      "stateMutability": "nonpayable",
      "type": "function"
    },
    {
      "inputs": [
        {
          "internalType": "address",
          "name": "_token",
          "type": "address"
        },
        {
          "internalType": "uint256",
          "name": "_amount",
          "type": "uint256"
        }
      ],
      "name": "depositToken",
      "outputs": [],
      "stateMutability": "nonpayable",
      "type": "function"
    },
    {
      "inputs": [
        {
          "internalType": "address",
          "name": "_token",
          "type": "address"
        },
        {
          "internalType": "uint256",
          "name": "_amount",
          "type": "uint256"
        }
      ],
      "name": "withdrawToken",
      "outputs": [],
      "stateMutability": "nonpayable",
      "type": "function"
    }
  ],
  "bytecode": "0x60806040523480156200001157600080fd5b50604051620013093803806200130983398181016040528101906200003791906200012b565b816000806101000a81548173ffffffffffffffffffffffffffffffffffffffff021916908373ffffffffffffffffffffffffffffffffffffffff16021790555080600181905550505062000172565b600080fd5b600073ffffffffffffffffffffffffffffffffffffffff82169050919050565b6000620000b8826200008b565b9050919050565b620000ca81620000ab565b8114620000d657600080fd5b50565b600081519050620000ea81620000bf565b92915050565b6000819050919050565b6200010581620000f0565b81146200011157600080fd5b50565b6000815190506200012581620000fa565b92915050565b6000806040838503121562000145576200014462000086565b5b60006200015585828601620000d9565b9250506020620001688582860162000114565b9150509250929050565b61118780620001826000396000f3fe608060405260043610610098576000357c01000000000000000000000000000000000000000000000000000000009004806365e17c9d1161006b57806365e17c9d146101575780637fd6f15c1461018257806398ea5fca146101ad5780639e281a98146101b757610098565b8063338b5dea1461009d5780633bed33ce146100c657806342cb1fbc146100ef578063508493bc1461011a575b600080fd5b3480156100a957600080fd5b506100c460048036038101906100bf9190610dc6565b6101e0565b005b3480156100d257600080fd5b506100ed60048036038101906100e89190610e06565b61048a565b005b3480156100fb57600080fd5b50610104610726565b6040516101119190610e42565b60405180910390f35b34801561012657600080fd5b50610141600480360381019061013c9190610e5d565b61072b565b60405161014e9190610eac565b60405180910390f35b34801561016357600080fd5b5061016c610750565b6040516101799190610e42565b60405180910390f35b34801561018e57600080fd5b50610197610774565b6040516101a49190610eac565b60405180910390f35b6101b561077a565b005b3480156101c357600080fd5b506101de60048036038101906101d99190610dc6565b610945565b005b600073ffffffffffffffffffffffffffffffffffffffff168273ffffffffffffffffffffffffffffffffffffffff160361021957600080fd5b8173ffffffffffffffffffffffffffffffffffffffff166323b872dd3330846040518463ffffffff167c010000000000000000000000000000000000000000000000000000000002815260040161027293929190610ec7565b6020604051808303816000875af1158015610291573d6000803e3d6000fd5b505050506040513d601f19601f820116820180604052508101906102b59190610f36565b6102be57600080fd5b61034d81600260008573ffffffffffffffffffffffffffffffffffffffff1673ffffffffffffffffffffffffffffffffffffffff16815260200190815260200160002060003373ffffffffffffffffffffffffffffffffffffffff1673ffffffffffffffffffffffffffffffffffffffff16815260200190815260200160002054610c7690919063ffffffff16565b600260008473ffffffffffffffffffffffffffffffffffffffff1673ffffffffffffffffffffffffffffffffffffffff16815260200190815260200160002060003373ffffffffffffffffffffffffffffffffffffffff1673ffffffffffffffffffffffffffffffffffffffff168152602001908152602001600020819055507fdcbc1c05240f31ff3ad067ef1ee35ce4997762752e3a095284754544f4c709d7823383600260008773ffffffffffffffffffffffffffffffffffffffff1673ffffffffffffffffffffffffffffffffffffffff16815260200190815260200160002060003373ffffffffffffffffffffffffffffffffffffffff1673ffffffffffffffffffffffffffffffffffffffff1681526020019081526020016000205460405161047e9493929190610f63565b60405180910390a15050565b80600260008073ffffffffffffffffffffffffffffffffffffffff1673ffffffffffffffffffffffffffffffffffffffff16815260200190815260200160002060003373ffffffffffffffffffffffffffffffffffffffff1673ffffffffffffffffffffffffffffffffffffffff16815260200190815260200160002054101561051357600080fd5b6105a281600260008073ffffffffffffffffffffffffffffffffffffffff1673ffffffffffffffffffffffffffffffffffffffff16815260200190815260200160002060003373ffffffffffffffffffffffffffffffffffffffff1673ffffffffffffffffffffffffffffffffffffffff16815260200190815260200160002054610cd490919063ffffffff16565b600260008073ffffffffffffffffffffffffffffffffffffffff1673ffffffffffffffffffffffffffffffffffffffff16815260200190815260200160002060003373ffffffffffffffffffffffffffffffffffffffff1673ffffffffffffffffffffffffffffffffffffffff168152602001908152602001600020819055503373ffffffffffffffffffffffffffffffffffffffff166108fc829081150290604051600060405180830381858888f19350505050158015610668573d6000803e3d6000fd5b507ff341246adaac6f497bc2a656f546ab9e182111d630394f0c57c710a59a2cb56760003383600260008073ffffffffffffffffffffffffffffffffffffffff1673ffffffffffffffffffffffffffffffffffffffff16815260200190815260200160002060003373ffffffffffffffffffffffffffffffffffffffff1673ffffffffffffffffffffffffffffffffffffffff1681526020019081526020016000205460405161071b9493929190610f63565b60405180910390a150565b600081565b6002602052816000526040600020602052806000526040600020600091509150505481565b60008054906101000a900473ffffffffffffffffffffffffffffffffffffffff1681565b60015481565b61080934600260008073ffffffffffffffffffffffffffffffffffffffff1673ffffffffffffffffffffffffffffffffffffffff16815260200190815260200160002060003373ffffffffffffffffffffffffffffffffffffffff1673ffffffffffffffffffffffffffffffffffffffff16815260200190815260200160002054610c7690919063ffffffff16565b600260008073ffffffffffffffffffffffffffffffffffffffff1673ffffffffffffffffffffffffffffffffffffffff16815260200190815260200160002060003373ffffffffffffffffffffffffffffffffffffffff1673ffffffffffffffffffffffffffffffffffffffff168152602001908152602001600020819055507fdcbc1c05240f31ff3ad067ef1ee35ce4997762752e3a095284754544f4c709d760003334600260008073ffffffffffffffffffffffffffffffffffffffff1673ffffffffffffffffffffffffffffffffffffffff16815260200190815260200160002060003373ffffffffffffffffffffffffffffffffffffffff1673ffffffffffffffffffffffffffffffffffffffff1681526020019081526020016000205460405161093b9493929190610f63565b60405180910390a1565b600073ffffffffffffffffffffffffffffffffffffffff168273ffffffffffffffffffffffffffffffffffffffff160361097e57600080fd5b80600260008473ffffffffffffffffffffffffffffffffffffffff1673ffffffffffffffffffffffffffffffffffffffff16815260200190815260200160002060003373ffffffffffffffffffffffffffffffffffffffff1673ffffffffffffffffffffffffffffffffffffffff168152602001908152602001600020541015610a0757600080fd5b610a9681600260008573ffffffffffffffffffffffffffffffffffffffff1673ffffffffffffffffffffffffffffffffffffffff16815260200190815260200160002060003373ffffffffffffffffffffffffffffffffffffffff1673ffffffffffffffffffffffffffffffffffffffff16815260200190815260200160002054610cd490919063ffffffff16565b600260008473ffffffffffffffffffffffffffffffffffffffff1673ffffffffffffffffffffffffffffffffffffffff16815260200190815260200160002060003373ffffffffffffffffffffffffffffffffffffffff1673ffffffffffffffffffffffffffffffffffffffff168152602001908152602001600020819055508173ffffffffffffffffffffffffffffffffffffffff1663a9059cbb33836040518363ffffffff167c0100000000000000000000000000000000000000000000000000000000028152600401610b6d929190610fa8565b6020604051808303816000875af1158015610b8c573d6000803e3d6000fd5b505050506040513d601f19601f82011682018060405250810190610bb09190610f36565b610bb957600080fd5b7ff341246adaac6f497bc2a656f546ab9e182111d630394f0c57c710a59a2cb567823383600260008773ffffffffffffffffffffffffffffffffffffffff1673ffffffffffffffffffffffffffffffffffffffff16815260200190815260200160002060003373ffffffffffffffffffffffffffffffffffffffff1673ffffffffffffffffffffffffffffffffffffffff16815260200190815260200160002054604051610c6a9493929190610f63565b60405180910390a15050565b6000808284610c859190611000565b905083811015610cca576040517f08c379a0000000000000000000000000000000000000000000000000000000008152600401610cc190611091565b60405180910390fd5b8091505092915050565b600082821115610d19576040517f08c379a0000000000000000000000000000000000000000000000000000000008152600401610d10906110fd565b60405180910390fd5b8183610d25919061111d565b905092915050565b600080fd5b600073ffffffffffffffffffffffffffffffffffffffff82169050919050565b6000610d5d82610d32565b9050919050565b610d6d81610d52565b8114610d7857600080fd5b50565b600081359050610d8a81610d64565b92915050565b6000819050919050565b610da381610d90565b8114610dae57600080fd5b50565b600081359050610dc081610d9a565b92915050565b60008060408385031215610ddd57610ddc610d2d565b5b6000610deb85828601610d7b565b9250506020610dfc85828601610db1565b9150509250929050565b600060208284031215610e1c57610e1b610d2d565b5b6000610e2a84828501610db1565b91505092915050565b610e3c81610d52565b82525050565b6000602082019050610e576000830184610e33565b92915050565b60008060408385031215610e7457610e73610d2d565b5b6000610e8285828601610d7b565b9250506020610e9385828601610d7b565b9150509250929050565b610ea681610d90565b82525050565b6000602082019050610ec16000830184610e9d565b92915050565b6000606082019050610edc6000830186610e33565b610ee96020830185610e33565b610ef66040830184610e9d565b949350505050565b60008115159050919050565b610f1381610efe565b8114610f1e57600080fd5b50565b600081519050610f3081610f0a565b92915050565b600060208284031215610f4c57610f4b610d2d565b5b6000610f5a84828501610f21565b91505092915050565b6000608082019050610f786000830187610e33565b610f856020830186610e33565b610f926040830185610e9d565b610f9f6060830184610e9d565b95945050505050565b6000604082019050610fbd6000830185610e33565b610fca6020830184610e9d565b9392505050565b7f4e487b7100000000000000000000000000000000000000000000000000000000600052601160045260246000fd5b600061100b82610d90565b915061101683610d90565b925082820190508082111561102e5761102d610fd1565b5b92915050565b600082825260208201905092915050565b7f536166654d6174683a206164646974696f6e206f766572666c6f770000000000600082015250565b600061107b601b83611034565b915061108682611045565b602082019050919050565b600060208201905081810360008301526110aa8161106e565b9050919050565b7f536166654d6174683a207375627472616374696f6e206f766572666c6f770000600082015250565b60006110e7601e83611034565b91506110f2826110b1565b602082019050919050565b60006020820190508181036000830152611116816110da565b9050919050565b600061112882610d90565b915061113383610d90565b925082820390508181111561114b5761114a610fd1565b5b9291505056fea26469706673582212200ffe9c97cce20c40509c8d0a1c2e596804eb4219c69228aff1c1686f3c32df5264736f6c63430008110033",
  "immutableReferences": {},
  "source": "// SPDX-License-Identifier: GPL - 3.0\npragma solidity >=0.4.16 <0.9.0; // solidity\nimport \"openzeppelin-solidity/contracts/math/SafeMath.sol\";\nimport \"./WzToken.sol\";\n\ncontract Exchange {\n    using SafeMath for uint256;\n    // \n    address public feeAccount;\n    // \n    uint256 public feePercent;\n    address public constant ETHER = address(0);\n    // \n    mapping(address => mapping(address => uint256)) public tokens;\n\n    // \n    // mapping(address => address) public allow\n\n    constructor(address _feeAccount, uint256 _feePercent) {\n        feeAccount = _feeAccount;\n        feePercent = _feePercent;\n    }\n\n    event Deposit(address token, address user, uint256 amount, uint256 balance);\n    event Withdraw(\n        address token,\n        address user,\n        uint256 amount,\n        uint256 balance\n    );\n\n    // \n    function depositEther() public payable {\n        tokens[ETHER][msg.sender] = tokens[ETHER][msg.sender].add(msg.value);\n        emit Deposit(ETHER, msg.sender, msg.value, tokens[ETHER][msg.sender]);\n    }\n\n    // eth\n    function withdrawEther(uint256 _amount) public {\n        require(tokens[ETHER][msg.sender] >= _amount);\n        tokens[ETHER][msg.sender] = tokens[ETHER][msg.sender].sub(_amount);\n        payable(msg.sender).transfer(_amount);\n        emit Withdraw(ETHER, msg.sender, _amount, tokens[ETHER][msg.sender]);\n    }\n\n    // \n    function depositToken(address _token, uint256 _amount) public {\n        require(_token != ETHER);\n        require(\n            WzToken(_token).transferFrom(msg.sender, address(this), _amount)\n        );\n        tokens[_token][msg.sender] = tokens[_token][msg.sender].add(_amount);\n        emit Deposit(_token, msg.sender, _amount, tokens[_token][msg.sender]);\n    }\n\n    function withdrawToken(address _token, uint256 _amount) public {\n        require(_token != ETHER);\n        require(tokens[_token][msg.sender] >= _amount);\n        tokens[_token][msg.sender] = tokens[_token][msg.sender].sub(_amount);\n        require(WzToken(_token).transfer(msg.sender, _amount));\n        emit Withdraw(_token, msg.sender, _amount, tokens[_token][msg.sender]);\n    }\n}\n",
  "sourcePath": "/Users/wangzhen/Desktop/githubBudWang/web3js/truffle/contracts/contracts/Exchange.sol",
  "compiler": {
    "name": "solc",
    "version": "0.8.17+commit.8df45f5f.Emscripten.clang"
  },
  "schemaVersion": "3.4.11",
  "updatedAt": "2023-02-06T13:38:51.254Z",
  "networkType": "ethereum",
  "devdoc": {
    "kind": "dev",
    "methods": {},
    "version": 1
  },
  "userdoc": {
    "kind": "user",
    "methods": {},
    "version": 1
  }
}