{
  "contractName": "Exchange",
  "abi": [
    {
      "inputs": [
        {
          "internalType": "address",
          "name": "_feeAccount",
          "type": "address"
        },
        {
          "internalType": "uint256",
          "name": "_feePercent",
          "type": "uint256"
        }
      ],
      "stateMutability": "nonpayable",
      "type": "constructor"
    },
    {
      "anonymous": false,
      "inputs": [
        {
          "indexed": false,
          "internalType": "address",
          "name": "token",
          "type": "address"
        },
        {
          "indexed": false,
          "internalType": "address",
          "name": "user",
          "type": "address"
        },
        {
          "indexed": false,
          "internalType": "uint256",
          "name": "amount",
          "type": "uint256"
        },
        {
          "indexed": false,
          "internalType": "uint256",
          "name": "balance",
          "type": "uint256"
        }
      ],
      "name": "Deposit",
      "type": "event"
    },
    {
      "inputs": [],
      "name": "ETHER",
      "outputs": [
        {
          "internalType": "address",
          "name": "",
          "type": "address"
        }
      ],
      "stateMutability": "view",
      "type": "function",
      "constant": true
    },
    {
      "inputs": [],
      "name": "feeAccount",
      "outputs": [
        {
          "internalType": "address",
          "name": "",
          "type": "address"
        }
      ],
      "stateMutability": "view",
      "type": "function",
      "constant": true
    },
    {
      "inputs": [],
      "name": "feePercent",
      "outputs": [
        {
          "internalType": "uint256",
          "name": "",
          "type": "uint256"
        }
      ],
      "stateMutability": "view",
      "type": "function",
      "constant": true
    },
    {
      "inputs": [
        {
          "internalType": "address",
          "name": "",
          "type": "address"
        },
        {
          "internalType": "address",
          "name": "",
          "type": "address"
        }
      ],
      "name": "tokens",
      "outputs": [
        {
          "internalType": "uint256",
          "name": "",
          "type": "uint256"
        }
      ],
      "stateMutability": "view",
      "type": "function",
      "constant": true
    },
    {
      "inputs": [],
      "name": "depositEther",
      "outputs": [],
      "stateMutability": "payable",
      "type": "function",
      "payable": true
    },
    {
      "inputs": [
        {
          "internalType": "address",
          "name": "_token",
          "type": "address"
        },
        {
          "internalType": "uint256",
          "name": "_amount",
          "type": "uint256"
        }
      ],
      "name": "depositToken",
      "outputs": [],
      "stateMutability": "nonpayable",
      "type": "function"
    }
  ],
  "bytecode": "0x608060405234801561001057600080fd5b50604051610b5b380380610b5b83398181016040528101906100329190610119565b816000806101000a81548173ffffffffffffffffffffffffffffffffffffffff021916908373ffffffffffffffffffffffffffffffffffffffff160217905550806001819055505050610159565b600080fd5b600073ffffffffffffffffffffffffffffffffffffffff82169050919050565b60006100b082610085565b9050919050565b6100c0816100a5565b81146100cb57600080fd5b50565b6000815190506100dd816100b7565b92915050565b6000819050919050565b6100f6816100e3565b811461010157600080fd5b50565b600081519050610113816100ed565b92915050565b600080604083850312156101305761012f610080565b5b600061013e858286016100ce565b925050602061014f85828601610104565b9150509250929050565b6109f3806101686000396000f3fe608060405260043610610072576000357c010000000000000000000000000000000000000000000000000000000090048063338b5dea1461007757806342cb1fbc146100a0578063508493bc146100cb57806365e17c9d146101085780637fd6f15c1461013357806398ea5fca1461015e575b600080fd5b34801561008357600080fd5b5061009e60048036038101906100999190610728565b610168565b005b3480156100ac57600080fd5b506100b5610412565b6040516100c29190610777565b60405180910390f35b3480156100d757600080fd5b506100f260048036038101906100ed9190610792565b610417565b6040516100ff91906107e1565b60405180910390f35b34801561011457600080fd5b5061011d61043c565b60405161012a9190610777565b60405180910390f35b34801561013f57600080fd5b50610148610460565b60405161015591906107e1565b60405180910390f35b610166610466565b005b600073ffffffffffffffffffffffffffffffffffffffff168273ffffffffffffffffffffffffffffffffffffffff16036101a157600080fd5b8173ffffffffffffffffffffffffffffffffffffffff166323b872dd3330846040518463ffffffff167c01000000000000000000000000000000000000000000000000000000000281526004016101fa939291906107fc565b6020604051808303816000875af1158015610219573d6000803e3d6000fd5b505050506040513d601f19601f8201168201806040525081019061023d919061086b565b61024657600080fd5b6102d581600260008573ffffffffffffffffffffffffffffffffffffffff1673ffffffffffffffffffffffffffffffffffffffff16815260200190815260200160002060003373ffffffffffffffffffffffffffffffffffffffff1673ffffffffffffffffffffffffffffffffffffffff1681526020019081526020016000205461063190919063ffffffff16565b600260008473ffffffffffffffffffffffffffffffffffffffff1673ffffffffffffffffffffffffffffffffffffffff16815260200190815260200160002060003373ffffffffffffffffffffffffffffffffffffffff1673ffffffffffffffffffffffffffffffffffffffff168152602001908152602001600020819055507fdcbc1c05240f31ff3ad067ef1ee35ce4997762752e3a095284754544f4c709d7823383600260008773ffffffffffffffffffffffffffffffffffffffff1673ffffffffffffffffffffffffffffffffffffffff16815260200190815260200160002060003373ffffffffffffffffffffffffffffffffffffffff1673ffffffffffffffffffffffffffffffffffffffff168152602001908152602001600020546040516104069493929190610898565b60405180910390a15050565b600081565b6002602052816000526040600020602052806000526040600020600091509150505481565b60008054906101000a900473ffffffffffffffffffffffffffffffffffffffff1681565b60015481565b6104f534600260008073ffffffffffffffffffffffffffffffffffffffff1673ffffffffffffffffffffffffffffffffffffffff16815260200190815260200160002060003373ffffffffffffffffffffffffffffffffffffffff1673ffffffffffffffffffffffffffffffffffffffff1681526020019081526020016000205461063190919063ffffffff16565b600260008073ffffffffffffffffffffffffffffffffffffffff1673ffffffffffffffffffffffffffffffffffffffff16815260200190815260200160002060003373ffffffffffffffffffffffffffffffffffffffff1673ffffffffffffffffffffffffffffffffffffffff168152602001908152602001600020819055507fdcbc1c05240f31ff3ad067ef1ee35ce4997762752e3a095284754544f4c709d760003334600260008073ffffffffffffffffffffffffffffffffffffffff1673ffffffffffffffffffffffffffffffffffffffff16815260200190815260200160002060003373ffffffffffffffffffffffffffffffffffffffff1673ffffffffffffffffffffffffffffffffffffffff168152602001908152602001600020546040516106279493929190610898565b60405180910390a1565b6000808284610640919061090c565b905083811015610685576040517f08c379a000000000000000000000000000000000000000000000000000000000815260040161067c9061099d565b60405180910390fd5b8091505092915050565b600080fd5b600073ffffffffffffffffffffffffffffffffffffffff82169050919050565b60006106bf82610694565b9050919050565b6106cf816106b4565b81146106da57600080fd5b50565b6000813590506106ec816106c6565b92915050565b6000819050919050565b610705816106f2565b811461071057600080fd5b50565b600081359050610722816106fc565b92915050565b6000806040838503121561073f5761073e61068f565b5b600061074d858286016106dd565b925050602061075e85828601610713565b9150509250929050565b610771816106b4565b82525050565b600060208201905061078c6000830184610768565b92915050565b600080604083850312156107a9576107a861068f565b5b60006107b7858286016106dd565b92505060206107c8858286016106dd565b9150509250929050565b6107db816106f2565b82525050565b60006020820190506107f660008301846107d2565b92915050565b60006060820190506108116000830186610768565b61081e6020830185610768565b61082b60408301846107d2565b949350505050565b60008115159050919050565b61084881610833565b811461085357600080fd5b50565b6000815190506108658161083f565b92915050565b6000602082840312156108815761088061068f565b5b600061088f84828501610856565b91505092915050565b60006080820190506108ad6000830187610768565b6108ba6020830186610768565b6108c760408301856107d2565b6108d460608301846107d2565b95945050505050565b7f4e487b7100000000000000000000000000000000000000000000000000000000600052601160045260246000fd5b6000610917826106f2565b9150610922836106f2565b925082820190508082111561093a576109396108dd565b5b92915050565b600082825260208201905092915050565b7f536166654d6174683a206164646974696f6e206f766572666c6f770000000000600082015250565b6000610987601b83610940565b915061099282610951565b602082019050919050565b600060208201905081810360008301526109b68161097a565b905091905056fea2646970667358221220f7c1f99a09c760f9992ae5fe2938bd151050c18373c5191485b1158a3b93c2a264736f6c63430008110033",
  "immutableReferences": {},
  "source": "// SPDX-License-Identifier: GPL - 3.0\npragma solidity >=0.4.16 <0.9.0; // solidity\nimport \"openzeppelin-solidity/contracts/math/SafeMath.sol\";\nimport \"./WzToken.sol\";\ncontract Exchange {\n    using SafeMath for uint256;\n    // \n    address public feeAccount;\n    // \n    uint256 public feePercent;\n    address constant public ETHER = address(0);\n    // \n    mapping(address => mapping(address => uint256)) public tokens;\n\n    // \n    // mapping(address => address) public allow\n\n    constructor(address _feeAccount, uint256 _feePercent) {\n        feeAccount = _feeAccount;\n        feePercent = _feePercent;\n    }\n    event Deposit(address token,address user,uint256 amount, uint256 balance);\n\n    // \n    function depositEther() payable public {\n      tokens[ETHER][msg.sender] = tokens[ETHER][msg.sender].add(msg.value);\n      emit Deposit(ETHER, msg.sender, msg.value, tokens[ETHER][msg.sender]);\n    }\n\n    // \n    function depositToken(address _token, uint256 _amount) public {\n      require(_token != ETHER);\n      require(WzToken(_token).transferFrom(msg.sender, address(this), _amount));\n      tokens[_token][msg.sender] = tokens[_token][msg.sender].add(_amount);\n      emit Deposit(_token, msg.sender, _amount, tokens[_token][msg.sender]);\n    }\n}\n",
  "sourcePath": "/Users/wangzhen/Desktop/githubBudWang/web3js/truffle/contracts/contracts/Exchange.sol",
  "compiler": {
    "name": "solc",
    "version": "0.8.17+commit.8df45f5f.Emscripten.clang"
  },
  "schemaVersion": "3.4.11",
  "updatedAt": "2023-02-06T12:46:44.098Z",
  "networkType": "ethereum",
  "devdoc": {
    "kind": "dev",
    "methods": {},
    "version": 1
  },
  "userdoc": {
    "kind": "user",
    "methods": {},
    "version": 1
  }
}