{
  "contractName": "StudentListStorage",
  "abi": [
    {
      "inputs": [
        {
          "internalType": "uint256",
          "name": "",
          "type": "uint256"
        }
      ],
      "name": "StudentList",
      "outputs": [
        {
          "internalType": "uint256",
          "name": "id",
          "type": "uint256"
        },
        {
          "internalType": "string",
          "name": "name",
          "type": "string"
        },
        {
          "internalType": "uint256",
          "name": "age",
          "type": "uint256"
        },
        {
          "internalType": "address",
          "name": "account",
          "type": "address"
        }
      ],
      "stateMutability": "view",
      "type": "function",
      "constant": true
    },
    {
      "inputs": [
        {
          "internalType": "string",
          "name": "_name",
          "type": "string"
        },
        {
          "internalType": "uint256",
          "name": "_age",
          "type": "uint256"
        }
      ],
      "name": "addList",
      "outputs": [
        {
          "internalType": "uint256",
          "name": "",
          "type": "uint256"
        }
      ],
      "stateMutability": "nonpayable",
      "type": "function"
    },
    {
      "inputs": [],
      "name": "getList",
      "outputs": [
        {
          "components": [
            {
              "internalType": "uint256",
              "name": "id",
              "type": "uint256"
            },
            {
              "internalType": "string",
              "name": "name",
              "type": "string"
            },
            {
              "internalType": "uint256",
              "name": "age",
              "type": "uint256"
            },
            {
              "internalType": "address",
              "name": "account",
              "type": "address"
            }
          ],
          "internalType": "struct StudentListStorage.Student[]",
          "name": "",
          "type": "tuple[]"
        }
      ],
      "stateMutability": "view",
      "type": "function",
      "constant": true
    }
  ],
  "bytecode": "0x608060405234801561001057600080fd5b50610ca8806100206000396000f3fe608060405234801561001057600080fd5b506004361061005e576000357c0100000000000000000000000000000000000000000000000000000000900480636b29d35f14610063578063942b765a1461009357806395bbc64e146100b1575b600080fd5b61007d600480360381019061007891906105bd565b6100e4565b60405161008a9190610628565b60405180910390f35b61009b6101e5565b6040516100a89190610837565b60405180910390f35b6100cb60048036038101906100c69190610859565b610345565b6040516100db94939291906108df565b60405180910390f35b600080600080549050905060006001826100fe919061095a565b9050600060405180608001604052808381526020018781526020018681526020013373ffffffffffffffffffffffffffffffffffffffff1681525090806001815401808255809150506001900390600052602060002090600402016000909190919091506000820151816000015560208201518160010190816101819190610ba0565b506040820151816002015560608201518160030160006101000a81548173ffffffffffffffffffffffffffffffffffffffff021916908373ffffffffffffffffffffffffffffffffffffffff16021790555050506000805490509250505092915050565b6060600080805480602002602001604051908101604052809291908181526020016000905b82821015610338578382906000526020600020906004020160405180608001604052908160008201548152602001600182018054610247906109bd565b80601f0160208091040260200160405190810160405280929190818152602001828054610273906109bd565b80156102c05780601f10610295576101008083540402835291602001916102c0565b820191906000526020600020905b8154815290600101906020018083116102a357829003601f168201915b50505050508152602001600282015481526020016003820160009054906101000a900473ffffffffffffffffffffffffffffffffffffffff1673ffffffffffffffffffffffffffffffffffffffff1673ffffffffffffffffffffffffffffffffffffffff16815250508152602001906001019061020a565b5050505090508091505090565b6000818154811061035557600080fd5b906000526020600020906004020160009150905080600001549080600101805461037e906109bd565b80601f01602080910402602001604051908101604052809291908181526020018280546103aa906109bd565b80156103f75780601f106103cc576101008083540402835291602001916103f7565b820191906000526020600020905b8154815290600101906020018083116103da57829003601f168201915b5050505050908060020154908060030160009054906101000a900473ffffffffffffffffffffffffffffffffffffffff16905084565b6000604051905090565b600080fd5b600080fd5b600080fd5b600080fd5b6000601f19601f8301169050919050565b7f4e487b7100000000000000000000000000000000000000000000000000000000600052604160045260246000fd5b6104948261044b565b810181811067ffffffffffffffff821117156104b3576104b261045c565b5b80604052505050565b60006104c661042d565b90506104d2828261048b565b919050565b600067ffffffffffffffff8211156104f2576104f161045c565b5b6104fb8261044b565b9050602081019050919050565b82818337600083830152505050565b600061052a610525846104d7565b6104bc565b90508281526020810184848401111561054657610545610446565b5b610551848285610508565b509392505050565b600082601f83011261056e5761056d610441565b5b813561057e848260208601610517565b91505092915050565b6000819050919050565b61059a81610587565b81146105a557600080fd5b50565b6000813590506105b781610591565b92915050565b600080604083850312156105d4576105d3610437565b5b600083013567ffffffffffffffff8111156105f2576105f161043c565b5b6105fe85828601610559565b925050602061060f858286016105a8565b9150509250929050565b61062281610587565b82525050565b600060208201905061063d6000830184610619565b92915050565b600081519050919050565b600082825260208201905092915050565b6000819050602082019050919050565b61067881610587565b82525050565b600081519050919050565b600082825260208201905092915050565b60005b838110156106b857808201518184015260208101905061069d565b60008484015250505050565b60006106cf8261067e565b6106d98185610689565b93506106e981856020860161069a565b6106f28161044b565b840191505092915050565b600073ffffffffffffffffffffffffffffffffffffffff82169050919050565b6000610728826106fd565b9050919050565b6107388161071d565b82525050565b6000608083016000830151610756600086018261066f565b506020830151848203602086015261076e82826106c4565b9150506040830151610783604086018261066f565b506060830151610796606086018261072f565b508091505092915050565b60006107ad838361073e565b905092915050565b6000602082019050919050565b60006107cd82610643565b6107d7818561064e565b9350836020820285016107e98561065f565b8060005b85811015610825578484038952815161080685826107a1565b9450610811836107b5565b925060208a019950506001810190506107ed565b50829750879550505050505092915050565b6000602082019050818103600083015261085181846107c2565b905092915050565b60006020828403121561086f5761086e610437565b5b600061087d848285016105a8565b91505092915050565b600082825260208201905092915050565b60006108a28261067e565b6108ac8185610886565b93506108bc81856020860161069a565b6108c58161044b565b840191505092915050565b6108d98161071d565b82525050565b60006080820190506108f46000830187610619565b81810360208301526109068186610897565b90506109156040830185610619565b61092260608301846108d0565b95945050505050565b7f4e487b7100000000000000000000000000000000000000000000000000000000600052601160045260246000fd5b600061096582610587565b915061097083610587565b92508282019050808211156109885761098761092b565b5b92915050565b7f4e487b7100000000000000000000000000000000000000000000000000000000600052602260045260246000fd5b600060028204905060018216806109d557607f821691505b6020821081036109e8576109e761098e565b5b50919050565b60008190508160005260206000209050919050565b60006020601f8301049050919050565b60008160020a8302905092915050565b600060088302610a537fffffffffffffffffffffffffffffffffffffffffffffffffffffffffffffffff82610a13565b610a5d8683610a13565b95508019841693508086168417925050509392505050565b6000819050919050565b6000610a9a610a95610a9084610587565b610a75565b610587565b9050919050565b6000819050919050565b610ab483610a7f565b610ac8610ac082610aa1565b848454610a23565b825550505050565b600090565b610add610ad0565b610ae8818484610aab565b505050565b5b81811015610b0c57610b01600082610ad5565b600181019050610aee565b5050565b601f821115610b5157610b22816109ee565b610b2b84610a03565b81016020851015610b3a578190505b610b4e610b4685610a03565b830182610aed565b50505b505050565b60008160020a8304905092915050565b6000610b7760001984600802610b56565b1980831691505092915050565b6000610b908383610b66565b9150826002028217905092915050565b610ba98261067e565b67ffffffffffffffff811115610bc257610bc161045c565b5b610bcc82546109bd565b610bd7828285610b10565b600060209050601f831160018114610c0a5760008415610bf8578287015190505b610c028582610b84565b865550610c6a565b601f198416610c18866109ee565b60005b82811015610c4057848901518255600182019150602085019450602081019050610c1b565b86831015610c5d5784890151610c59601f891682610b66565b8355505b6001600288020188555050505b50505050505056fea26469706673582212204af7b884b097892562365afef6a65b4451539117dbddab18344863203f29d88a64736f6c63430008110033",
  "immutableReferences": {},
  "source": "// SPDX-License-Identifier: GPL-3.0 \n//  MIT...\npragma solidity >=0.4.16 <0.9.0; //solidity\n\ncontract StudentListStorage{\n    //\n    struct Student {\n        uint id;\n        string name;\n        uint age;\n        address account;\n    }\n    //\n    Student[] public StudentList; //getter()\n\n    // struct ,  string\n    function addList(string memory _name,uint _age) public returns (uint){\n        uint count = StudentList.length;\n        uint index = count+1;\n        StudentList.push(Student(index,_name,_age,msg.sender));\n        return StudentList.length;\n    }\n\n   \n    // view( ) , pure  \n    function getList() public view returns (Student[] memory) {\n       Student[] memory list = StudentList;\n       return list;\n    }\n}",
  "sourcePath": "/Users/wangzhen/Desktop/githubBudWang/web3js/truffle/contracts/contracts/StudentListStorage.sol",
  "compiler": {
    "name": "solc",
    "version": "0.8.17+commit.8df45f5f.Emscripten.clang"
  },
  "schemaVersion": "3.4.11",
  "updatedAt": "2023-02-05T09:23:28.691Z",
  "networkType": "ethereum",
  "devdoc": {
    "kind": "dev",
    "methods": {},
    "version": 1
  },
  "userdoc": {
    "kind": "user",
    "methods": {},
    "version": 1
  }
}