{
  "contractName": "WzToken",
  "abi": [
    {
      "inputs": [],
      "stateMutability": "nonpayable",
      "type": "constructor"
    },
    {
      "inputs": [
        {
          "internalType": "address",
          "name": "",
          "type": "address"
        }
      ],
      "name": "balanceOf",
      "outputs": [
        {
          "internalType": "uint256",
          "name": "",
          "type": "uint256"
        }
      ],
      "stateMutability": "view",
      "type": "function",
      "constant": true
    },
    {
      "inputs": [],
      "name": "decimals",
      "outputs": [
        {
          "internalType": "uint256",
          "name": "",
          "type": "uint256"
        }
      ],
      "stateMutability": "view",
      "type": "function",
      "constant": true
    },
    {
      "inputs": [],
      "name": "name",
      "outputs": [
        {
          "internalType": "string",
          "name": "",
          "type": "string"
        }
      ],
      "stateMutability": "view",
      "type": "function",
      "constant": true
    },
    {
      "inputs": [],
      "name": "symbol",
      "outputs": [
        {
          "internalType": "string",
          "name": "",
          "type": "string"
        }
      ],
      "stateMutability": "view",
      "type": "function",
      "constant": true
    },
    {
      "inputs": [],
      "name": "totaSupply",
      "outputs": [
        {
          "internalType": "uint256",
          "name": "",
          "type": "uint256"
        }
      ],
      "stateMutability": "view",
      "type": "function",
      "constant": true
    },
    {
      "inputs": [
        {
          "internalType": "address",
          "name": "_to",
          "type": "address"
        },
        {
          "internalType": "uint256",
          "name": "_value",
          "type": "uint256"
        }
      ],
      "name": "transfer",
      "outputs": [
        {
          "internalType": "bool",
          "name": "success",
          "type": "bool"
        }
      ],
      "stateMutability": "nonpayable",
      "type": "function"
    }
  ],
  "bytecode": "0x60806040526040518060400160405280600781526020017f577a546f6b656e00000000000000000000000000000000000000000000000000815250600090816200004a919062000398565b506040518060400160405280600381526020017f575a5400000000000000000000000000000000000000000000000000000000008152506001908162000091919062000398565b506012600255348015620000a457600080fd5b50600254600a620000b6919062000602565b620f4240620000c6919062000653565b600381905550600354600460003373ffffffffffffffffffffffffffffffffffffffff1673ffffffffffffffffffffffffffffffffffffffff168152602001908152602001600020819055506200069e565b600081519050919050565b7f4e487b7100000000000000000000000000000000000000000000000000000000600052604160045260246000fd5b7f4e487b7100000000000000000000000000000000000000000000000000000000600052602260045260246000fd5b600060028204905060018216806200019a57607f821691505b602082108103620001b057620001af62000152565b5b50919050565b60008190508160005260206000209050919050565b60006020601f8301049050919050565b60008160020a8302905092915050565b6000600883026200021d7fffffffffffffffffffffffffffffffffffffffffffffffffffffffffffffffff82620001db565b620002298683620001db565b95508019841693508086168417925050509392505050565b6000819050919050565b6000819050919050565b600062000276620002706200026a8462000241565b6200024b565b62000241565b9050919050565b6000819050919050565b620002928362000255565b620002aa620002a1826200027d565b848454620001eb565b825550505050565b600090565b620002c1620002b2565b620002ce81848462000287565b505050565b5b81811015620002f657620002ea600082620002b7565b600181019050620002d4565b5050565b601f82111562000345576200030f81620001b6565b6200031a84620001cb565b810160208510156200032a578190505b620003426200033985620001cb565b830182620002d3565b50505b505050565b60008160020a8304905092915050565b60006200036d600019846008026200034a565b1980831691505092915050565b60006200038883836200035a565b9150826002028217905092915050565b620003a38262000118565b67ffffffffffffffff811115620003bf57620003be62000123565b5b620003cb825462000181565b620003d8828285620002fa565b600060209050601f831160018114620004105760008415620003fb578287015190505b6200040785826200037a565b86555062000477565b601f1984166200042086620001b6565b60005b828110156200044a5784890151825560018201915060208501945060208101905062000423565b868310156200046a578489015162000466601f8916826200035a565b8355505b6001600288020188555050505b505050505050565b7f4e487b7100000000000000000000000000000000000000000000000000000000600052601160045260246000fd5b6000600282049050919050565b6000808291508390505b60018511156200050d57808604811115620004e557620004e46200047f565b5b6001851615620004f55780820291505b80810290506200050585620004ae565b9450620004c5565b94509492505050565b600082620005285760019050620005fb565b81620005385760009050620005fb565b81600181146200055157600281146200055c5762000592565b6001915050620005fb565b60ff8411156200057157620005706200047f565b5b8360020a9150848211156200058b576200058a6200047f565b5b50620005fb565b5060208310610133831016604e8410600b8410161715620005cc5782820a905083811115620005c657620005c56200047f565b5b620005fb565b620005db8484846001620004bb565b92509050818404811115620005f557620005f46200047f565b5b81810290505b9392505050565b60006200060f8262000241565b91506200061c8362000241565b92506200064b7fffffffffffffffffffffffffffffffffffffffffffffffffffffffffffffffff848462000516565b905092915050565b6000620006608262000241565b91506200066d8362000241565b92508282026200067d8162000241565b915082820484148315176200069757620006966200047f565b5b5092915050565b6108a280620006ae6000396000f3fe608060405234801561001057600080fd5b506004361061007f576000357c01000000000000000000000000000000000000000000000000000000009004806306fdde0314610084578063313ce567146100a257806370a08231146100c057806395d89b41146100f0578063a9059cbb1461010e578063e1a6cadc1461013e575b600080fd5b61008c61015c565b6040516100999190610515565b60405180910390f35b6100aa6101ea565b6040516100b79190610550565b60405180910390f35b6100da60048036038101906100d591906105ce565b6101f0565b6040516100e79190610550565b60405180910390f35b6100f8610208565b6040516101059190610515565b60405180910390f35b61012860048036038101906101239190610627565b610296565b6040516101359190610682565b60405180910390f35b6101466103c8565b6040516101539190610550565b60405180910390f35b60008054610169906106cc565b80601f0160208091040260200160405190810160405280929190818152602001828054610195906106cc565b80156101e25780601f106101b7576101008083540402835291602001916101e2565b820191906000526020600020905b8154815290600101906020018083116101c557829003601f168201915b505050505081565b60025481565b60046020528060005260406000206000915090505481565b60018054610215906106cc565b80601f0160208091040260200160405190810160405280929190818152602001828054610241906106cc565b801561028e5780601f106102635761010080835404028352916020019161028e565b820191906000526020600020905b81548152906001019060200180831161027157829003601f168201915b505050505081565b60006102ea82600460003373ffffffffffffffffffffffffffffffffffffffff1673ffffffffffffffffffffffffffffffffffffffff168152602001908152602001600020546103ce90919063ffffffff16565b600460003373ffffffffffffffffffffffffffffffffffffffff1673ffffffffffffffffffffffffffffffffffffffff1681526020019081526020016000208190555061037f82600460003373ffffffffffffffffffffffffffffffffffffffff1673ffffffffffffffffffffffffffffffffffffffff1681526020019081526020016000205461042790919063ffffffff16565b600460008573ffffffffffffffffffffffffffffffffffffffff1673ffffffffffffffffffffffffffffffffffffffff1681526020019081526020016000208190555092915050565b60035481565b600082821115610413576040517f08c379a000000000000000000000000000000000000000000000000000000000815260040161040a90610749565b60405180910390fd5b818361041f9190610798565b905092915050565b600080828461043691906107cc565b90508381101561047b576040517f08c379a00000000000000000000000000000000000000000000000000000000081526004016104729061084c565b60405180910390fd5b8091505092915050565b600081519050919050565b600082825260208201905092915050565b60005b838110156104bf5780820151818401526020810190506104a4565b60008484015250505050565b6000601f19601f8301169050919050565b60006104e782610485565b6104f18185610490565b93506105018185602086016104a1565b61050a816104cb565b840191505092915050565b6000602082019050818103600083015261052f81846104dc565b905092915050565b6000819050919050565b61054a81610537565b82525050565b60006020820190506105656000830184610541565b92915050565b600080fd5b600073ffffffffffffffffffffffffffffffffffffffff82169050919050565b600061059b82610570565b9050919050565b6105ab81610590565b81146105b657600080fd5b50565b6000813590506105c8816105a2565b92915050565b6000602082840312156105e4576105e361056b565b5b60006105f2848285016105b9565b91505092915050565b61060481610537565b811461060f57600080fd5b50565b600081359050610621816105fb565b92915050565b6000806040838503121561063e5761063d61056b565b5b600061064c858286016105b9565b925050602061065d85828601610612565b9150509250929050565b60008115159050919050565b61067c81610667565b82525050565b60006020820190506106976000830184610673565b92915050565b7f4e487b7100000000000000000000000000000000000000000000000000000000600052602260045260246000fd5b600060028204905060018216806106e457607f821691505b6020821081036106f7576106f661069d565b5b50919050565b7f536166654d6174683a207375627472616374696f6e206f766572666c6f770000600082015250565b6000610733601e83610490565b915061073e826106fd565b602082019050919050565b6000602082019050818103600083015261076281610726565b9050919050565b7f4e487b7100000000000000000000000000000000000000000000000000000000600052601160045260246000fd5b60006107a382610537565b91506107ae83610537565b92508282039050818111156107c6576107c5610769565b5b92915050565b60006107d782610537565b91506107e283610537565b92508282019050808211156107fa576107f9610769565b5b92915050565b7f536166654d6174683a206164646974696f6e206f766572666c6f770000000000600082015250565b6000610836601b83610490565b915061084182610800565b602082019050919050565b6000602082019050818103600083015261086581610829565b905091905056fea2646970667358221220ba8e3f8fed512c2f674688c9b98b015c2206f2aa635f62e79240ab76000f2e2364736f6c63430008110033",
  "immutableReferences": {},
  "source": "// SPDX-License-Identifier: GPL - 3.0\npragma solidity >=0.4.16 <0.9.0; // solidity\nimport \"openzeppelin-solidity/contracts/math/SafeMath.sol\";\n\ncontract WzToken {\nusing SafeMath for uint256; //uint256sub  add \n    string public name = \"WzToken\";\n    string public symbol = \"WZT\";\n\n    uint256 public decimals = 18;\n    uint256 public totaSupply;\n    mapping(address => uint) public balanceOf;\n    constructor() {\n        totaSupply = 1000000 * (10**decimals);\n        // \n        balanceOf[msg.sender] = totaSupply;\n    }\n    function transfer(address _to, uint _value) public returns(bool success) {\n        // \n        balanceOf[msg.sender] = balanceOf[msg.sender].sub(_value);\n        balanceOf[_to] = balanceOf[msg.sender].add(_value);\n    }\n}\n",
  "sourcePath": "/Users/wangzhen/Desktop/githubBudWang/web3js/truffle/contracts/contracts/WzToken.sol",
  "compiler": {
    "name": "solc",
    "version": "0.8.17+commit.8df45f5f.Emscripten.clang"
  },
  "schemaVersion": "3.4.11",
  "updatedAt": "2023-02-04T15:40:54.728Z",
  "networkType": "ethereum",
  "devdoc": {
    "kind": "dev",
    "methods": {},
    "version": 1
  },
  "userdoc": {
    "kind": "user",
    "methods": {},
    "version": 1
  }
}