{
  "contractName": "WzToken",
  "abi": [
    {
      "inputs": [],
      "stateMutability": "nonpayable",
      "type": "constructor"
    },
    {
      "anonymous": false,
      "inputs": [
        {
          "indexed": true,
          "internalType": "address",
          "name": "_owner",
          "type": "address"
        },
        {
          "indexed": true,
          "internalType": "address",
          "name": "_spender",
          "type": "address"
        },
        {
          "indexed": false,
          "internalType": "uint256",
          "name": "_value",
          "type": "uint256"
        }
      ],
      "name": "Approval",
      "type": "event"
    },
    {
      "anonymous": false,
      "inputs": [
        {
          "indexed": true,
          "internalType": "address",
          "name": "_from",
          "type": "address"
        },
        {
          "indexed": true,
          "internalType": "address",
          "name": "_to",
          "type": "address"
        },
        {
          "indexed": false,
          "internalType": "uint256",
          "name": "_value",
          "type": "uint256"
        }
      ],
      "name": "Transfer",
      "type": "event"
    },
    {
      "inputs": [
        {
          "internalType": "address",
          "name": "",
          "type": "address"
        },
        {
          "internalType": "address",
          "name": "",
          "type": "address"
        }
      ],
      "name": "allowance",
      "outputs": [
        {
          "internalType": "uint256",
          "name": "",
          "type": "uint256"
        }
      ],
      "stateMutability": "view",
      "type": "function"
    },
    {
      "inputs": [
        {
          "internalType": "address",
          "name": "",
          "type": "address"
        }
      ],
      "name": "balanceOf",
      "outputs": [
        {
          "internalType": "uint256",
          "name": "",
          "type": "uint256"
        }
      ],
      "stateMutability": "view",
      "type": "function"
    },
    {
      "inputs": [],
      "name": "decimals",
      "outputs": [
        {
          "internalType": "uint256",
          "name": "",
          "type": "uint256"
        }
      ],
      "stateMutability": "view",
      "type": "function"
    },
    {
      "inputs": [],
      "name": "name",
      "outputs": [
        {
          "internalType": "string",
          "name": "",
          "type": "string"
        }
      ],
      "stateMutability": "view",
      "type": "function"
    },
    {
      "inputs": [],
      "name": "symbol",
      "outputs": [
        {
          "internalType": "string",
          "name": "",
          "type": "string"
        }
      ],
      "stateMutability": "view",
      "type": "function"
    },
    {
      "inputs": [],
      "name": "totaSupply",
      "outputs": [
        {
          "internalType": "uint256",
          "name": "",
          "type": "uint256"
        }
      ],
      "stateMutability": "view",
      "type": "function"
    },
    {
      "inputs": [
        {
          "internalType": "address",
          "name": "_to",
          "type": "address"
        },
        {
          "internalType": "uint256",
          "name": "_value",
          "type": "uint256"
        }
      ],
      "name": "transfer",
      "outputs": [
        {
          "internalType": "bool",
          "name": "",
          "type": "bool"
        }
      ],
      "stateMutability": "nonpayable",
      "type": "function"
    },
    {
      "inputs": [
        {
          "internalType": "address",
          "name": "_spender",
          "type": "address"
        },
        {
          "internalType": "uint256",
          "name": "_value",
          "type": "uint256"
        }
      ],
      "name": "approve",
      "outputs": [
        {
          "internalType": "bool",
          "name": "",
          "type": "bool"
        }
      ],
      "stateMutability": "nonpayable",
      "type": "function"
    },
    {
      "inputs": [
        {
          "internalType": "address",
          "name": "_from",
          "type": "address"
        },
        {
          "internalType": "address",
          "name": "_to",
          "type": "address"
        },
        {
          "internalType": "uint256",
          "name": "_value",
          "type": "uint256"
        }
      ],
      "name": "transferFrom",
      "outputs": [
        {
          "internalType": "bool",
          "name": "",
          "type": "bool"
        }
      ],
      "stateMutability": "nonpayable",
      "type": "function"
    }
  ],
  "bytecode": "0x60806040526040518060400160405280600781526020017f577a546f6b656e00000000000000000000000000000000000000000000000000815250600090816200004a919062000398565b506040518060400160405280600381526020017f575a5400000000000000000000000000000000000000000000000000000000008152506001908162000091919062000398565b506012600255348015620000a457600080fd5b50600254600a620000b6919062000602565b620f4240620000c6919062000653565b600381905550600354600460003373ffffffffffffffffffffffffffffffffffffffff1673ffffffffffffffffffffffffffffffffffffffff168152602001908152602001600020819055506200069e565b600081519050919050565b7f4e487b7100000000000000000000000000000000000000000000000000000000600052604160045260246000fd5b7f4e487b7100000000000000000000000000000000000000000000000000000000600052602260045260246000fd5b600060028204905060018216806200019a57607f821691505b602082108103620001b057620001af62000152565b5b50919050565b60008190508160005260206000209050919050565b60006020601f8301049050919050565b60008160020a8302905092915050565b6000600883026200021d7fffffffffffffffffffffffffffffffffffffffffffffffffffffffffffffffff82620001db565b620002298683620001db565b95508019841693508086168417925050509392505050565b6000819050919050565b6000819050919050565b600062000276620002706200026a8462000241565b6200024b565b62000241565b9050919050565b6000819050919050565b620002928362000255565b620002aa620002a1826200027d565b848454620001eb565b825550505050565b600090565b620002c1620002b2565b620002ce81848462000287565b505050565b5b81811015620002f657620002ea600082620002b7565b600181019050620002d4565b5050565b601f82111562000345576200030f81620001b6565b6200031a84620001cb565b810160208510156200032a578190505b620003426200033985620001cb565b830182620002d3565b50505b505050565b60008160020a8304905092915050565b60006200036d600019846008026200034a565b1980831691505092915050565b60006200038883836200035a565b9150826002028217905092915050565b620003a38262000118565b67ffffffffffffffff811115620003bf57620003be62000123565b5b620003cb825462000181565b620003d8828285620002fa565b600060209050601f831160018114620004105760008415620003fb578287015190505b6200040785826200037a565b86555062000477565b601f1984166200042086620001b6565b60005b828110156200044a5784890151825560018201915060208501945060208101905062000423565b868310156200046a578489015162000466601f8916826200035a565b8355505b6001600288020188555050505b505050505050565b7f4e487b7100000000000000000000000000000000000000000000000000000000600052601160045260246000fd5b6000600282049050919050565b6000808291508390505b60018511156200050d57808604811115620004e557620004e46200047f565b5b6001851615620004f55780820291505b80810290506200050585620004ae565b9450620004c5565b94509492505050565b600082620005285760019050620005fb565b81620005385760009050620005fb565b81600181146200055157600281146200055c5762000592565b6001915050620005fb565b60ff8411156200057157620005706200047f565b5b8360020a9150848211156200058b576200058a6200047f565b5b50620005fb565b5060208310610133831016604e8410600b8410161715620005cc5782820a905083811115620005c657620005c56200047f565b5b620005fb565b620005db8484846001620004bb565b92509050818404811115620005f557620005f46200047f565b5b81810290505b9392505050565b60006200060f8262000241565b91506200061c8362000241565b92506200064b7fffffffffffffffffffffffffffffffffffffffffffffffffffffffffffffffff848462000516565b905092915050565b6000620006608262000241565b91506200066d8362000241565b92508282026200067d8162000241565b915082820484148315176200069757620006966200047f565b5b5092915050565b610ff380620006ae6000396000f3fe608060405234801561001057600080fd5b50600436106100b0576000357c01000000000000000000000000000000000000000000000000000000009004806370a082311161008357806370a082311461015157806395d89b4114610181578063a9059cbb1461019f578063dd62ed3e146101cf578063e1a6cadc146101ff576100b0565b806306fdde03146100b5578063095ea7b3146100d357806323b872dd14610103578063313ce56714610133575b600080fd5b6100bd61021d565b6040516100ca9190610bd3565b60405180910390f35b6100ed60048036038101906100e89190610c8e565b6102ab565b6040516100fa9190610ce9565b60405180910390f35b61011d60048036038101906101189190610d04565b610421565b60405161012a9190610ce9565b60405180910390f35b61013b610786565b6040516101489190610d66565b60405180910390f35b61016b60048036038101906101669190610d81565b61078c565b6040516101789190610d66565b60405180910390f35b6101896107a4565b6040516101969190610bd3565b60405180910390f35b6101b960048036038101906101b49190610c8e565b610832565b6040516101c69190610ce9565b60405180910390f35b6101e960048036038101906101e49190610dae565b610881565b6040516101f69190610d66565b60405180910390f35b6102076108a6565b6040516102149190610d66565b60405180910390f35b6000805461022a90610e1d565b80601f016020809104026020016040519081016040528092919081815260200182805461025690610e1d565b80156102a35780601f10610278576101008083540402835291602001916102a3565b820191906000526020600020905b81548152906001019060200180831161028657829003601f168201915b505050505081565b60008073ffffffffffffffffffffffffffffffffffffffff168373ffffffffffffffffffffffffffffffffffffffff16036102e557600080fd5b81600460003373ffffffffffffffffffffffffffffffffffffffff1673ffffffffffffffffffffffffffffffffffffffff16815260200190815260200160002054101561033157600080fd5b81600560003373ffffffffffffffffffffffffffffffffffffffff1673ffffffffffffffffffffffffffffffffffffffff16815260200190815260200160002060008573ffffffffffffffffffffffffffffffffffffffff1673ffffffffffffffffffffffffffffffffffffffff168152602001908152602001600020819055508273ffffffffffffffffffffffffffffffffffffffff163373ffffffffffffffffffffffffffffffffffffffff167f8c5be1e5ebec7d5bd14f71427d1e84f3dd0314c0f7b2291e5b200ac8c7c3b9258460405161040f9190610d66565b60405180910390a36001905092915050565b600081600460003373ffffffffffffffffffffffffffffffffffffffff1673ffffffffffffffffffffffffffffffffffffffff16815260200190815260200160002054101561046f57600080fd5b81600560008673ffffffffffffffffffffffffffffffffffffffff1673ffffffffffffffffffffffffffffffffffffffff16815260200190815260200160002060003373ffffffffffffffffffffffffffffffffffffffff1673ffffffffffffffffffffffffffffffffffffffff1681526020019081526020016000205410156104f857600080fd5b61058782600560008773ffffffffffffffffffffffffffffffffffffffff1673ffffffffffffffffffffffffffffffffffffffff16815260200190815260200160002060003373ffffffffffffffffffffffffffffffffffffffff1673ffffffffffffffffffffffffffffffffffffffff168152602001908152602001600020546108ac90919063ffffffff16565b600560008673ffffffffffffffffffffffffffffffffffffffff1673ffffffffffffffffffffffffffffffffffffffff16815260200190815260200160002060003373ffffffffffffffffffffffffffffffffffffffff1673ffffffffffffffffffffffffffffffffffffffff1681526020019081526020016000208190555061069682600560008673ffffffffffffffffffffffffffffffffffffffff1673ffffffffffffffffffffffffffffffffffffffff16815260200190815260200160002060003373ffffffffffffffffffffffffffffffffffffffff1673ffffffffffffffffffffffffffffffffffffffff1681526020019081526020016000205461090590919063ffffffff16565b600560008573ffffffffffffffffffffffffffffffffffffffff1673ffffffffffffffffffffffffffffffffffffffff16815260200190815260200160002060003373ffffffffffffffffffffffffffffffffffffffff1673ffffffffffffffffffffffffffffffffffffffff168152602001908152602001600020819055508273ffffffffffffffffffffffffffffffffffffffff168473ffffffffffffffffffffffffffffffffffffffff167fddf252ad1be2c89b69c2b068fc378daa952ba7f163c4a11628f55a4df523b3ef846040516107739190610d66565b60405180910390a3600190509392505050565b60025481565b60046020528060005260406000206000915090505481565b600180546107b190610e1d565b80601f01602080910402602001604051908101604052809291908181526020018280546107dd90610e1d565b801561082a5780601f106107ff5761010080835404028352916020019161082a565b820191906000526020600020905b81548152906001019060200180831161080d57829003601f168201915b505050505081565b60008073ffffffffffffffffffffffffffffffffffffffff168373ffffffffffffffffffffffffffffffffffffffff160361086c57600080fd5b610877338484610963565b6001905092915050565b6005602052816000526040600020602052806000526040600020600091509150505481565b60035481565b6000828211156108f1576040517f08c379a00000000000000000000000000000000000000000000000000000000081526004016108e890610e9a565b60405180910390fd5b81836108fd9190610ee9565b905092915050565b60008082846109149190610f1d565b905083811015610959576040517f08c379a000000000000000000000000000000000000000000000000000000000815260040161095090610f9d565b60405180910390fd5b8091505092915050565b80600460008573ffffffffffffffffffffffffffffffffffffffff1673ffffffffffffffffffffffffffffffffffffffff1681526020019081526020016000205410156109af57600080fd5b610a0181600460008673ffffffffffffffffffffffffffffffffffffffff1673ffffffffffffffffffffffffffffffffffffffff168152602001908152602001600020546108ac90919063ffffffff16565b600460008573ffffffffffffffffffffffffffffffffffffffff1673ffffffffffffffffffffffffffffffffffffffff16815260200190815260200160002081905550610a9681600460008573ffffffffffffffffffffffffffffffffffffffff1673ffffffffffffffffffffffffffffffffffffffff1681526020019081526020016000205461090590919063ffffffff16565b600460008473ffffffffffffffffffffffffffffffffffffffff1673ffffffffffffffffffffffffffffffffffffffff168152602001908152602001600020819055508173ffffffffffffffffffffffffffffffffffffffff168373ffffffffffffffffffffffffffffffffffffffff167fddf252ad1be2c89b69c2b068fc378daa952ba7f163c4a11628f55a4df523b3ef83604051610b369190610d66565b60405180910390a3505050565b600081519050919050565b600082825260208201905092915050565b60005b83811015610b7d578082015181840152602081019050610b62565b60008484015250505050565b6000601f19601f8301169050919050565b6000610ba582610b43565b610baf8185610b4e565b9350610bbf818560208601610b5f565b610bc881610b89565b840191505092915050565b60006020820190508181036000830152610bed8184610b9a565b905092915050565b600080fd5b600073ffffffffffffffffffffffffffffffffffffffff82169050919050565b6000610c2582610bfa565b9050919050565b610c3581610c1a565b8114610c4057600080fd5b50565b600081359050610c5281610c2c565b92915050565b6000819050919050565b610c6b81610c58565b8114610c7657600080fd5b50565b600081359050610c8881610c62565b92915050565b60008060408385031215610ca557610ca4610bf5565b5b6000610cb385828601610c43565b9250506020610cc485828601610c79565b9150509250929050565b60008115159050919050565b610ce381610cce565b82525050565b6000602082019050610cfe6000830184610cda565b92915050565b600080600060608486031215610d1d57610d1c610bf5565b5b6000610d2b86828701610c43565b9350506020610d3c86828701610c43565b9250506040610d4d86828701610c79565b9150509250925092565b610d6081610c58565b82525050565b6000602082019050610d7b6000830184610d57565b92915050565b600060208284031215610d9757610d96610bf5565b5b6000610da584828501610c43565b91505092915050565b60008060408385031215610dc557610dc4610bf5565b5b6000610dd385828601610c43565b9250506020610de485828601610c43565b9150509250929050565b7f4e487b7100000000000000000000000000000000000000000000000000000000600052602260045260246000fd5b60006002820490506001821680610e3557607f821691505b602082108103610e4857610e47610dee565b5b50919050565b7f536166654d6174683a207375627472616374696f6e206f766572666c6f770000600082015250565b6000610e84601e83610b4e565b9150610e8f82610e4e565b602082019050919050565b60006020820190508181036000830152610eb381610e77565b9050919050565b7f4e487b7100000000000000000000000000000000000000000000000000000000600052601160045260246000fd5b6000610ef482610c58565b9150610eff83610c58565b9250828203905081811115610f1757610f16610eba565b5b92915050565b6000610f2882610c58565b9150610f3383610c58565b9250828201905080821115610f4b57610f4a610eba565b5b92915050565b7f536166654d6174683a206164646974696f6e206f766572666c6f770000000000600082015250565b6000610f87601b83610b4e565b9150610f9282610f51565b602082019050919050565b60006020820190508181036000830152610fb681610f7a565b905091905056fea264697066735822122021ec7438e9a26349b6038122dab340d7dff1dd929ae9b70625baea475cee791364736f6c63430008110033",
  "immutableReferences": {},
  "source": "// SPDX-License-Identifier: GPL - 3.0\npragma solidity >=0.4.16 <0.9.0; // solidity\nimport \"openzeppelin-solidity/contracts/math/SafeMath.sol\";\n\ncontract WzToken {\nusing SafeMath for uint256; //uint256sub  add \n    string public name = \"WzToken\";\n    string public symbol = \"WZT\";\n\n    uint256 public decimals = 18;\n    uint256 public totaSupply;\n    mapping(address => uint) public balanceOf;\n    mapping(address => mapping(address => uint256)) public allowance;\n    constructor() {\n        totaSupply = 1000000 * (10**decimals);\n        // \n        balanceOf[msg.sender] = totaSupply;\n    }\n    event Transfer(address indexed _from, address indexed _to, uint256 _value);\n    event Approval(address indexed _owner, address indexed _spender, uint256 _value);\n\n    function transfer(address _to, uint _value) public returns(bool) {\n        require(_to != address(0));\n        _transfer(msg.sender, _to, _value);\n        return true;\n    }\n    function _transfer(address _from, address _to, uint _value) internal {\n        require(balanceOf[_from] >= _value);\n        balanceOf[_from] = balanceOf[_from].sub(_value);\n        balanceOf[_to] = balanceOf[_to].add(_value);\n        emit Transfer(_from, _to, _value);\n    }\n    function approve(address _spender,uint _value) public returns(bool) {\n        // _spender \n        // msg.sender \n        // _value \n        require(_spender != address(0));\n        require(balanceOf[msg.sender] >= _value);\n        allowance[msg.sender][_spender] = _value;\n        emit Approval(msg.sender, _spender, _value);\n        return true;\n    }\n    // \n    function transferFrom(address _from, address _to, uint _value) public returns (bool) {\n        // _from \n        // _to \n        // msg.sender \n        require(balanceOf[msg.sender] >= _value);\n        require(allowance[_from][msg.sender] >= _value);\n        allowance[_from][msg.sender] = allowance[_from][msg.sender].sub(_value);\n        allowance[_to][msg.sender] = allowance[_to][msg.sender].add(_value);\n        emit Transfer(_from, _to, _value);\n        return true;\n    }\n}\n",
  "sourcePath": "/Users/wangzhen/Desktop/githubBudWang/web3js/truffle/contracts/contracts/WzToken.sol",
  "compiler": {
    "name": "solc",
    "version": "0.8.17+commit.8df45f5f.Emscripten.clang"
  },
  "schemaVersion": "3.4.11",
  "updatedAt": "2023-02-05T14:53:44.163Z",
  "devdoc": {
    "kind": "dev",
    "methods": {},
    "version": 1
  },
  "userdoc": {
    "kind": "user",
    "methods": {},
    "version": 1
  }
}