{
  "contractName": "Wztoken",
  "abi": [
    {
      "inputs": [],
      "stateMutability": "nonpayable",
      "type": "constructor"
    },
    {
      "inputs": [],
      "name": "decimals",
      "outputs": [
        {
          "internalType": "uint256",
          "name": "",
          "type": "uint256"
        }
      ],
      "stateMutability": "view",
      "type": "function"
    },
    {
      "inputs": [],
      "name": "name",
      "outputs": [
        {
          "internalType": "string",
          "name": "",
          "type": "string"
        }
      ],
      "stateMutability": "view",
      "type": "function"
    },
    {
      "inputs": [],
      "name": "symbol",
      "outputs": [
        {
          "internalType": "string",
          "name": "",
          "type": "string"
        }
      ],
      "stateMutability": "view",
      "type": "function"
    },
    {
      "inputs": [],
      "name": "totalSupply",
      "outputs": [
        {
          "internalType": "uint256",
          "name": "",
          "type": "uint256"
        }
      ],
      "stateMutability": "view",
      "type": "function"
    }
  ],
  "bytecode": "0x60806040526040518060400160405280600781526020017f577a546f6b656e00000000000000000000000000000000000000000000000000815250600090816200004a919062000352565b506040518060400160405280600381526020017f575a5400000000000000000000000000000000000000000000000000000000008152506001908162000091919062000352565b506012600255348015620000a457600080fd5b50600254600a620000b69190620005bc565b620f4240620000c691906200060d565b60038190555062000658565b600081519050919050565b7f4e487b7100000000000000000000000000000000000000000000000000000000600052604160045260246000fd5b7f4e487b7100000000000000000000000000000000000000000000000000000000600052602260045260246000fd5b600060028204905060018216806200015457607f821691505b6020821081036200016a57620001696200010c565b5b50919050565b60008190508160005260206000209050919050565b60006020601f8301049050919050565b60008160020a8302905092915050565b600060088302620001d77fffffffffffffffffffffffffffffffffffffffffffffffffffffffffffffffff8262000195565b620001e3868362000195565b95508019841693508086168417925050509392505050565b6000819050919050565b6000819050919050565b6000620002306200022a6200022484620001fb565b62000205565b620001fb565b9050919050565b6000819050919050565b6200024c836200020f565b620002646200025b8262000237565b848454620001a5565b825550505050565b600090565b6200027b6200026c565b6200028881848462000241565b505050565b5b81811015620002b057620002a460008262000271565b6001810190506200028e565b5050565b601f821115620002ff57620002c98162000170565b620002d48462000185565b81016020851015620002e4578190505b620002fc620002f38562000185565b8301826200028d565b50505b505050565b60008160020a8304905092915050565b6000620003276000198460080262000304565b1980831691505092915050565b600062000342838362000314565b9150826002028217905092915050565b6200035d82620000d2565b67ffffffffffffffff811115620003795762000378620000dd565b5b6200038582546200013b565b62000392828285620002b4565b600060209050601f831160018114620003ca5760008415620003b5578287015190505b620003c1858262000334565b86555062000431565b601f198416620003da8662000170565b60005b828110156200040457848901518255600182019150602085019450602081019050620003dd565b8683101562000424578489015162000420601f89168262000314565b8355505b6001600288020188555050505b505050505050565b7f4e487b7100000000000000000000000000000000000000000000000000000000600052601160045260246000fd5b6000600282049050919050565b6000808291508390505b6001851115620004c7578086048111156200049f576200049e62000439565b5b6001851615620004af5780820291505b8081029050620004bf8562000468565b94506200047f565b94509492505050565b600082620004e25760019050620005b5565b81620004f25760009050620005b5565b81600181146200050b576002811462000516576200054c565b6001915050620005b5565b60ff8411156200052b576200052a62000439565b5b8360020a91508482111562000545576200054462000439565b5b50620005b5565b5060208310610133831016604e8410600b8410161715620005865782820a90508381111562000580576200057f62000439565b5b620005b5565b62000595848484600162000475565b92509050818404811115620005af57620005ae62000439565b5b81810290505b9392505050565b6000620005c982620001fb565b9150620005d683620001fb565b9250620006057fffffffffffffffffffffffffffffffffffffffffffffffffffffffffffffffff8484620004d0565b905092915050565b60006200061a82620001fb565b91506200062783620001fb565b92508282026200063781620001fb565b9150828204841483151762000651576200065062000439565b5b5092915050565b61038a80620006686000396000f3fe608060405234801561001057600080fd5b5060043610610069576000357c01000000000000000000000000000000000000000000000000000000009004806306fdde031461006e57806318160ddd1461008c578063313ce567146100aa57806395d89b41146100c8575b600080fd5b6100766100e6565b604051610083919061029e565b60405180910390f35b610094610174565b6040516100a191906102d9565b60405180910390f35b6100b261017a565b6040516100bf91906102d9565b60405180910390f35b6100d0610180565b6040516100dd919061029e565b60405180910390f35b600080546100f390610323565b80601f016020809104026020016040519081016040528092919081815260200182805461011f90610323565b801561016c5780601f106101415761010080835404028352916020019161016c565b820191906000526020600020905b81548152906001019060200180831161014f57829003601f168201915b505050505081565b60035481565b60025481565b6001805461018d90610323565b80601f01602080910402602001604051908101604052809291908181526020018280546101b990610323565b80156102065780601f106101db57610100808354040283529160200191610206565b820191906000526020600020905b8154815290600101906020018083116101e957829003601f168201915b505050505081565b600081519050919050565b600082825260208201905092915050565b60005b8381101561024857808201518184015260208101905061022d565b60008484015250505050565b6000601f19601f8301169050919050565b60006102708261020e565b61027a8185610219565b935061028a81856020860161022a565b61029381610254565b840191505092915050565b600060208201905081810360008301526102b88184610265565b905092915050565b6000819050919050565b6102d3816102c0565b82525050565b60006020820190506102ee60008301846102ca565b92915050565b7f4e487b7100000000000000000000000000000000000000000000000000000000600052602260045260246000fd5b6000600282049050600182168061033b57607f821691505b60208210810361034e5761034d6102f4565b5b5091905056fea26469706673582212205e9b173c5b94c9398eb16ceafb4697f4e123b19b68e1b77ee22d501688652d2d64736f6c63430008110033",
  "immutableReferences": {},
  "source": "// SPDX-License-Identifier: GPL - 3.0\npragma solidity >=0.0.16 <0.9.0; // solidity\n\ncontract Wztoken {\n    string public name = \"WzToken\";\n    string public symbol = \"WZT\";\n    uint public decimals = 18;\n    uint public totalSupply;\n\n    constructor () {\n        totalSupply = 1000000 * (10 ** decimals);\n    }\n\n}\n",
  "sourcePath": "/Users/wangzhen/Desktop/githubBudWang/web3js/truffle/contracts/contracts/StudentStorage.sol",
  "compiler": {
    "name": "solc",
    "version": "0.8.17+commit.8df45f5f.Emscripten.clang"
  },
  "schemaVersion": "3.4.11",
  "updatedAt": "2023-02-04T04:38:12.890Z",
  "devdoc": {
    "kind": "dev",
    "methods": {},
    "version": 1
  },
  "userdoc": {
    "kind": "user",
    "methods": {},
    "version": 1
  }
}